:020000040800F2
:1000000000500020A9320008DD3200085118000815
:10001000571800085D180008631800080000000069
:10002000000000000000000000000000DD320008B9
:10003000DD32000800000000DD320008DD3200087B
:10004000DD320008DD320008DD320008DD32000854
:10005000DD320008DD320008DD320008DD32000844
:10006000DD320008DD320008DD320008DD32000834
:10007000DD320008DD320008DD320008DD32000824
:10008000DD320008DD320008DD32000849180008C2
:100090004D180008DD32000855170008DD32000851
:1000A000DD320008DD320008DD320008DD320008F4
:1000B000DD320008DD320008DD320008DD320008E4
:1000C000DD320008DD320008DD320008DD320008D4
:1000D000DD320008DD320008DD320008DD320008C4
:1000E000DD320008DD320008DD32000800000000CB
:1000F0000000000000000000000000000000000000
:1001000000000000000000005FF808F110B5054C89
:10011000237833B9044B13B10448AFF300800123B3
:10012000237010BD7802002000000000E096000857
:100130000C4B43B10C4810B50C49AFF300800C4890
:10014000036823B910BD0A48036833B97047094BE7
:10015000002BF7D0BDE810401847064B002BF5D018
:10016000184700BF00000000E09600087C02002055
:100170007402002000000000154B002B08BF134B39
:100180009D46A3F5803A00218B460F461348144A3A
:10019000121A06F031FA0F4B002B00D098470E4B85
:1001A000002B00D098470020002104000D000D48CE
:1001B000002802D00C4802F045F806F05DF9200056
:1001C000290002F0F7FA02F0AFF900BF00000800C2
:1001D0000050002000000000A52700087802002041
:1001E000B80E002045220008000000007047000003
:1001F000044B1A78D2075EBF1A7842F001021A70D7
:10020000704700BFD00700200368184708B10B688B
:100210000360704770470000F8B50A4E0A4D06F1BA
:10022000B007304604F0E8FC58B1EC783846E4B248
:10023000631CDBB2EB7005F02DFB2C44C0B2E07107
:10024000EFE7F8BDE80700200E050020014804F0A4
:10025000CFBE00BF1009002010B50446382105F0BC
:10026000B8FD204610BD000010B50446074BB03065
:1002700003F1200240F8B03C80330260436005F097
:10028000E1FA204604F08CFD204610BDF88F0008EE
:10029000A0F1B000E8E7A0F1B400E5E710B504462E
:1002A00005F026FB237E1BB105F094FC002323768A
:1002B00005F034FB204610BD044B5A6811681A68DB
:1002C00011420CBF9B68DB681A607047A0040020D5
:1002D00038B504460D461C22002106F08DF9204653
:1002E000294604F018FF204638BD38B500230446DF
:1002F0000D46037605F0FCFA2046294602F030FD53
:1003000005F00CFB204638BD38B504460D4605F017
:10031000EFFA2946204602F09DFDBDE8384005F081
:10032000FDBA000010B5044604F08AFE2046064BD4
:10033000102240F8283B002106F05EF901232046F8
:1003400084F8383010BD00BFA090000838B5144CB8
:100350002378032B21D8DFE803F002070C1463781D
:100360000BB10323237038BD6378002BFBD102232C
:10037000F8E765788DB90B4804F031FE25706060B0
:1003800038BD6378002BEDD001230648237004F0BC
:1003900026FE6368C01AA06038BD0123E2E700BFF3
:1003A000D8070020B0070020552370B58EB08DF817
:1003B00004304E238DF8053045238DF80630522346
:1003C0008DF8073000238DF808303A23A3288DF8E4
:1003D00009302FD00BD8052865D0A02855D0DD23B3
:1003E0008DF80A30022307218DF808300CE0A4288C
:1003F00038D0F028F3D10D238DF80B3003230821DA
:100400008DF80A008DF80830002004462C4BC2B24B
:100410008A4200F1010048DA0EAD2A4412F8346C29
:100420005A797440D2B2551CEDB21A445D7182F80B
:100430000761ECE7234B244A1B688DF80A00136020
:10044000C3F307228DF80C20C3F307428DF80B305D
:100450008DF80D201B0E8DF80E3006230B218DF824
:100460000830D1E71749184ACB898DF80A009BB2AA
:1004700013808DF80B301B0A8DF80C300B8A9BB261
:1004800013808DF80D301B0AE5E70E490E4A0B8CE0
:100490008DF80A009BB213808DF80B301B0A8DF883
:1004A0000C304B8CEBE70621AEE75A79D2B2511CE7
:1004B000C9B25971134483F807410EB070BD00BF33
:1004C0000E050020C8080020D407002008B5074802
:1004D00004F081FD064B1860064B1B7823B1BDE884
:1004E0000840A320FFF760BF08BD00BF100900202F
:1004F000C80800200409002010B5134C1348A38B32
:1005000001339BB2A38304F06AFD6369C01AB0F59E
:10051000FA7F17D3E3899BB2B3F57A4F0FBF00235D
:10052000E289A38B9B1818BF9BB2E381084B5B78D1
:1005300013B1A420FFF738FF00230448A38304F07D
:100540004EFD606110BD00BFC8080020B00700204C
:100550000409002010B5134C1348E38B01339BB200
:10056000E38304F03CFDA369C01AB0F5FA7F17D30A
:10057000238A9BB2B3F57A4F0FBF0023228AE38B05
:100580009B1818BF9BB22382084B5B7813B1A42041
:10059000FFF70AFF00230448E38304F020FDA06175
:1005A00010BD00BFC8080020B007002004090020CB
:1005B00008B5094804F031FB68B1084B08489A793E
:1005C000D2B2511CC9B29971134493F80711BDE816
:1005D000084005F049B908BDE80700200E050020D5
:1005E0009808002010B55F4C94F82630032B00F2D9
:1005F000B880DFE803F002184F7D5B4804F0EFFCA1
:10060000236BC01A632840F3AC80574804F0E7FC22
:10061000564B20635A6811681A6811420CBF9B68D8
:10062000DB681A6010BD524B4F485B79FBB904F090
:10063000D6FC236BC01A632840F393804A4804F029
:10064000CEFC206394F82E30012B484B40F087807D
:10065000DA681B68136094F82E301D2BCFBF00237F
:1006600094F82E300133DBB284F82E3010BD04F044
:10067000B6FC236BC01A632873DD3B4804F0AFFC63
:10068000206394F82E30052B384BE1DD94F82E20B2
:10069000072ADBE7364B34485B7993B904F09FFCBB
:1006A000236BC01A63285CDD2F4804F098FC20639C
:1006B00094F82E30012B2D4BCAD094F82E20032A0B
:1006C000C4E704F08CFC236BC01A632849DD26487C
:1006D00004F085FC206394F82E30052B234BB7DD06
:1006E00094F82E20072AB3D094F82E20092AADE7DB
:1006F0001F4B1D485B79B3B904F071FC236BC01A22
:1007000063282EDD184804F06AFC206394F82E302C
:10071000012B164B9CD094F82E20032A98D094F8E5
:100720002E20052A92E704F05AFC236BC01A632896
:1007300017DD0D4804F053FC206394F82E30052B90
:100740000A4B85DD94F82E20072A81D094F82E20BC
:10075000092A3FF47DAF94F82E200B2A76E79A6899
:1007600077E710BDC8080020B0070020E002002095
:100770000409002008B5074B074899890BB24FF4CC
:100780007A715943B42391FBF3F101F2DC51FFF785
:10079000BBFD08BDC8080020A403002038B5434CA9
:1007A00094F82730013B032B19D8DFE803F0021E31
:1007B000365E94F828103E4A3E4B89B1D1681268E3
:1007C0000A609A681B683C481360A38B9BB2012B9C
:1007D000D2BF4FF4FA71618D89B2FFF795FD38BD34
:1007E000916812680A60DA68ECE794F82810334AD6
:1007F000334B69B1916812680A60DA681B6813604C
:10080000E38B9BB2012B4EDC4FF4FA712D48E4E7E9
:10081000D16812680A609A68F0E794F82850244872
:100820002449264A264B55B1C56800682860886867
:1008300009680160916812680A60DA6809E08568F1
:1008400000682860C86809680160D16812680A6099
:100850009A681B681360A38B9BB2012B02DC638D2B
:100860009BB29BB9618D89B212E094F82850104870
:100870001049124A124B25B1C56800682860886883
:10088000E1E7856800682860C868D1E74FF4FA712D
:100890000948FFF739FDE38B9BB2012B03DCA38DE5
:1008A0009BB2002BB0D1A18D89B2AFE7C808002060
:1008B00038070020540700206C0300207007002038
:1008C0008C07002088030020552370B58EB08DF86A
:1008D00004304E238DF8053045238DF80630522321
:1008E0008DF8073000238DF808303A23574C8DF8E7
:1008F000093094F80832DBB2A32B5FD00CD8A12BBF
:1009000068D04BD8A02B00F08880DD238DF80A300A
:1009100002238DF808305BE0F02B13D00CD8A42B09
:10092000F3D18DF80A300223494A8DF80830537804
:1009300083F0010353704BE0F12B0DD0F22BE4D187
:10094000062316E08DF80A300D238DF80B300323B3
:100950008DF8083008230CE08DF80A303D4B1A78EA
:100960005B788DF80B208DF80C3004238DF808305F
:10097000092300210846CAB29A4201F101015BDA5B
:100980000EAD2A4412F8346C62797040D2B2551C14
:10099000EDB22244657182F80761ECE7A2238DF87D
:1009A0000A300D238DF80B3003232B4A8DF80830C5
:1009B00094F809329381FFF7DDFECBE78DF80A301A
:1009C0000323234A8DF80830137883F00103137052
:1009D0000723CEE78DF80A300D238DF80B30022364
:1009E0008DF808301A4B9A7882F001029A70997843
:1009F000194B01F0FF0209B14FF47A729A855A85BA
:100A000094F80922D2B283F8272094F80A22D2B2AD
:100A100083F82820FFF7C2FE9CE7A2238DF80A3056
:100A20000D238DF80B300323094A8DF80830D37855
:100A300083F00103D3708DE76379DBB25A1CD2B225
:100A400062711C4484F807010EB070BD0E050020D1
:100A500004090020D4070020C8080020F8B54C4E37
:100A60004C4D34463279F3789A4200F090802B78DE
:100A7000062B5DD8DFE803F004121E29343F5E0028
:100A80002379DBB25A1CD2B222712344DB79552B75
:100A9000E8D101232B7000236370E3E72379DBB2F5
:100AA0005A1CD2B222712344DB794E2B3CD1022353
:100AB0002B70D7E72379DBB25A1CD2B222712344C0
:100AC000DB79452B30D10323F2E72379DBB25A1CC3
:100AD000D2B222712344DB79522B25D10423E7E7DC
:100AE0002379DBB25A1CD2B223442271DA792A4B21
:100AF0001A700523DCE72379DBB25A1CD2B22271CB
:100B00002344DB793A2B0FD106232B70224B93F928
:100B1000003083F03602D2B262700122DBB284F878
:100B200007321E4B1A709DE72379013BDBB223711C
:100B30000023BDE7184991F90030012B15DD174856
:100B400090F90020571C0770207922442044C07976
:100B5000C0B282F807022279D2B2501CC0B2207112
:100B60002244D279607842406270013B5BB2002B34
:100B70000B703FF777AF002362782B702379234403
:100B8000DB799A427FF46EAFFFF79EFE6AE7F8BD0D
:100B90000E050020A80700200D0500200C050020F0
:100BA000022838B5044622D003282DD0012834D19C
:100BB0001A4804F014FA1A4DAB68C01AB0F5FA7F5F
:100BC000184B0AD84FF4E1725A859A85042283F8AB
:100BD0002720BDE83840FFF7E1BD00225A859A85FD
:100BE000042283F82720FFF7D9FD6C7138BD0B482C
:100BF00004F0F5F90A4B9B68C01A40F25233984250
:100C0000084BDFD90022DFE7044804F0E8F9044B81
:100C10009B68C01AB0F5967FF2E738BDB007002098
:100C2000B4080020C808002070B5474C2368B3F50D
:100C3000AF6F58D8A3891BB2002B33D1434B9B799C
:100C400083BB2368B3F5C87F236871D2B3F5C87F2F
:100C50003ED370BD00256585A585FFF79FFDA58165
:100C6000FFF788FDB571ECE7A3891BB2002BE8DD27
:100C70000123364E0025B3712368B3F5AF6FEAD870
:100C80004FF4E1736385A38584F828501AE04FF48C
:100C9000C8736385A385012384F82830032384F86F
:100CA00027304BE0A3891B04DED50123274EB37107
:100CB0002268B2F5AF6FCDD84FF4E1726285A2859C
:100CC00084F82830042384F82730FFF767FDB8E75D
:100CD0002368B3F5BE7F4FF000032DD24FF4C872E6
:100CE0006285A285D8E700236385A385FFF756FDBB
:100CF000174804F074F9636BC01AB0F5167F21DB56
:100D0000134804F06CF9606394F825305A2B0FBF38
:100D10006FF0590394F825301E335BB284F8253008
:100D200094F825305BB2A381BDE87040FFF722BD87
:100D3000B3F5F07FABD800236385A385BDE8704091
:100D4000FFF72CBD70BD00BFC808002004090020BB
:100D5000B0070020F8B56F4C6F4D2368B3F57A7F6C
:100D600040F2B4802B7903F0FF02002B40F0AE80FC
:100D700049F64041238C9BB28B4204DD638C9BB2CD
:100D80008B4200F3C28041F28832238C9BB29342A3
:100D90000FDC638C9BB293424FF4E1736385CBBF4E
:100DA00000234FF4DC73A385A385CCBF0223032368
:100DB00005E0002363854FF4DC73A38501232B80BA
:100DC000012384F82830032384F82730BDE8F84055
:100DD000FFF7E4BC687BC0B2022811D003281BD007
:100DE000012840F095806B7903F0FF0213B984F875
:100DF00028200AE002232B736B7300236B71F8BD6C
:100E00006A7932B9032084F82830BDE8F840FFF74A
:100E1000C7BE28730323EFE76B7903F0FF02002BB3
:100E2000E5D002232B730423E6E72368B3F5C86FEC
:100E30002DD30323002601276685A68584F8273055
:100E400084F82870FFF7AAFC6B7B022B17D12F7355
:100E5000324804F0C4F8A86041F28832238C9BB277
:100E60009342B3DD6B7B042BB0D1002601232B739F
:100E7000A681FFF77FFC6685A6852E71A6E76B7BB2
:100E8000032BE4D0A681FFF775FC2E71E4E72368FD
:100E9000B3F5617F4FF4C87309D363850023A3853D
:100EA000012384F82830032384F82730D4E722680C
:100EB000B2F5487F96BF002263856285A385032330
:100EC00084F82730012384F82830C5E7002701265D
:100ED0006785A785FFF762FC2E71A3891BB291334A
:100EE0000BD04FF66F73A381FFF744FC0B482E73B2
:100EF0006E736F7104F073F8A8602B7BDBB2012B6B
:100F00003FF468AF022B90D0F8BDA285628557E709
:100F1000F8BD00BFC8080020B4080020B0070020BA
:100F2000284B10B51A68284CB2F5167F3BD9A27B26
:100F3000012A38D049F640411A8C92B28A4203DD28
:100F40005A8C92B28A4239DC41F288311A8C92B2C0
:100F50008A4212DC5A8C92B28A424FF496725A85B7
:100F6000CBBF00229A859A850322C9BF032283F84A
:100F7000272083F82720022208E000225A854FF418
:100F800096729A85032283F827200122228001226B
:100F900083F82820032283F82720BDE81040FFF7BC
:100FA000FDBB237C10BD00225A859A85FFF7F6FB16
:100FB0000123A373E37B012BF3D010BD00229A859C
:100FC0005A85E4E7C8080020B4080020C36810B5BB
:100FD00004460BB19B689847204610BD38B50546BE
:100FE0000446064B45F8283B03F065FF2846FFF70B
:100FF000EDFF204604F04CF8204638BDA0900008D4
:1010000010B50446FFF7EAFF2046402104F0E1FE58
:10101000204610BD10B50446024B0360FFF7DEFF0B
:10102000204610BDB490000808B5034653F8042BC1
:1010300002B9036002689A4204D068220249034858
:1010400004F03AFC184608BDD0840008F08400087B
:1010500008B50248FFF7E8FF08BD00BF100C0020EC
:1010600008B50248FFF7E0FF08BD00BF100C0020E4
:10107000F8B504460F460546074B084E44F8043BB6
:101080003046FFF7D1FF3946204600F0A1FA30463E
:10109000FFF7CAFF2846F8BDB4840008100C0020F2
:1010A00038B51048FFF7C0FF0F4800F087FA054633
:1010B0000E4C0C48FFF7B8FF0A482584FFF7B4FF31
:1010C0000B4800F07BFA05460648FFF7ADFF094BD9
:1010D0006584DB7823B1BDE83840A020FFF764B910
:1010E00038BD00BF100C002000030020C8080020FD
:1010F000380300200409002038B50D4604461022AC
:10110000002105F079FA2B682360014BE36038BDBC
:10111000C4840008002480B585488CB003F01EFF0D
:10112000844803F01BFF844A0CA9137808A86FF3C6
:1011300000031370814B824F1C70824B7C4D41F831
:10114000183DFFF7D9FF224608A97F4803F0EEFDBE
:1011500008A8FFF73BFF7D4B0CA941F81C3D08A8F0
:10116000FFF7CAFF4CF25032002308A9784803F079
:1011700085FE08A8FFF72AFF764B0CA941F8203D11
:1011800008A8FFF7B9FF08A9734803F066FC08A890
:10119000FFF71CFF714B0CA941F8243D08A8FFF78D
:1011A000ABFF08A96C4803F07EFC08A8FFF70EFF10
:1011B0006B4B0CA941F8283D08A8FFF79DFF08A933
:1011C000684803F04AFC08A8FFF700FF664B0CA92B
:1011D00041F82C3D08A8FFF78FFF08A9634803F0EA
:1011E0003CFC08A8FFF7F2FE04F082FB4FF47A7192
:1011F0005F4801F013FD04F091FB04F079FB4FF41C
:101200007A715C4801F00AFD3C4604F087FB2846F1
:1012100003F0E5FE7B68C01A632815D9FFF74CF888
:10122000554B0CA941F8143D08A8FFF765FF0A22A9
:10123000002308A9514803F021FE08A8FFF7C6FEC5
:10124000284603F0CCFE7860284603F0C8FEA36869
:10125000C01A272805D9FFF723FF284603F0BFFE51
:10126000A060284603F0BBFE454EF368C01A27284D
:1012700023D9284603F0B3FEF060424803F06CFB2C
:10128000002838D001237370FFF760F840F28232F3
:10129000B368A3F1650191422FD8002294F826305B
:1012A000B2600133DBB284F82630374B5A7194F8C0
:1012B0002630032B01DD84F82620FFF793F994F8FC
:1012C0002630DBB2022B24D0032B29D0012B04D1F2
:1012D0002D4B5B790BB1FFF7A7FC2C4E3279F378DD
:1012E0009A4201D0FFF7BAFBB27973799A428ED055
:1012F000FFF75EF98BE77070C6E740F2DB52A3F2AE
:10130000DC5393429FBF204A537983F0010353710A
:10131000D3E71D4B5B79002BDFD0FFF71BFDDCE72C
:10132000194B5B79002BD8D0FFF7FAFDD5E700BF4A
:10133000B007002010090020D0070020A9070020D6
:10134000C808002019020008E8070020F101000881
:10135000300900204D020008BC040020CD04000824
:10136000F90400081004002055050008C0030020FF
:101370006C03002088030020B902000860040020EC
:10138000D807002094020020040900200E05002048
:1013900010B50446FEF768FF2046CC2104F019FD85
:1013A000204610BDA0F1B000F2E7A0F1B400EFE7D5
:1013B00010B50446FFF72EFE2046402104F009FD3B
:1013C000204610BD4FF0FF3370B55E4D8EB05E4CC1
:1013D0000C930B930A930993089307930693059331
:1013E000049303930293019300931A461421284611
:1013F00003F048FA22465549284600F021FF1F21F4
:101400005348FEF765FF1E215248FEF761FF172182
:101410005148FEF75DFF514E16215148FEF758FF27
:101420001D215048FEF754FF4F4D1C21304603F05C
:10143000B9FA30464D4E2246294600F001FF1821E8
:10144000304603F0AFFA3046494E2246294600F0B6
:10145000F7FE1921304603F0A5FA2946454D2246EC
:10146000304600F0EDFE444E00212846FFF700FE16
:101470002846424D2246314600F0E2FE0121284630
:10148000FFF7F6FD31463E4E2246284600F0D8FED4
:101490003C4D1A213046FEF728FF30463A4E224690
:1014A000294600F0CDFE15213046FEF71EFF3046DE
:1014B000364E2246294600F0C3FE08213046FEF78C
:1014C00014FF224629463046314D00F0B9FE2D2149
:1014D0003048FEF7FDFE4FF4E1330A220921284689
:1014E00003F040FB28462C4D22462C4900F0A8FE74
:1014F0002B4E284603F08DFD28462A4D22463146C4
:1015000000F09EFE284603F084FD2846264D224624
:10151000314600F095FE2846FEF704FF234B28468F
:101520002B60234D2246234900F08AFE2846FEF711
:10153000F9FE2246284620490EB0BDE8704000F072
:101540007FBE00BF94020020F00000204948000840
:10155000380700205407002070070020BC0400203A
:101560008C070020A0040020FD4900081004002082
:10157000C0030020FC020020ED010008340300201D
:10158000A40300209D0200086C03002088030020B3
:10159000E8070020E0020020B007002069020008F0
:1015A0003D4F00081009002060040020B49000089E
:1015B0003009002015100008DD0F000808B500F004
:1015C0007BF8C0F3032343EA001080B208BD00009B
:1015D00070B5A1F1F0039BB20F2B86B004460D4607
:1015E00015D92E49284603F0E1FD2C4920602846F4
:1015F00003F0FEFD29490646284603F08FFD2368C7
:1016000001330FD13C222649264804F055F92649DA
:10161000284603F0CBFD24492060284603F0E8FD6E
:101620000646ECE7731C03D13D221D491F48ECE739
:101630002586C6F304361E4D84F83260AB6901225C
:1016400043F40073AB61AB69204603F4007301936C
:10165000019B0023A3626360A360E3606361A361F5
:101660004FF460232261E36102F030F810B11148B9
:1016700004F056FA6B6803F44043B3F5004F0AD008
:10168000022302934FF4004302A8049302F0C2FB2A
:10169000204602F09BF806B070BD00BF048500082C
:1016A0008C870008F4870008B88500081E880008A9
:1016B00000100240378800081FB500230122019363
:1016C000042390F8321004460292039311293FD864
:1016D000DFE801F00A091C1F1D21232527292B2DD6
:1016E0002F313335373C019201A9204601F0AEFE7F
:1016F000204601F067FF0A21204601F005FE38BBB5
:10170000204601F09FFE80B204B010BD0223019379
:10171000EAE70323FBE70523F9E70623F7E70723B7
:10172000F5E70823F3E70923F1E70A23EFE70B23A3
:10173000EDE70C23EBE70D23E9E70E23E7E70F23A3
:10174000E5E71023019307230393CDE71123F9E77E
:101750000020D9E7364B70B55A69D2072AD5986868
:10176000344E99683040B04208BF0126324D9A6825
:1017700001EA050108BF9E60A94208BF4FF48075C9
:101780002E4C2B4B02EA040208BF9D60A24204BF0C
:101790004FF480349C60274B984205D0264B9942E9
:1017A00002D0264B9A4205D1254B264A1B680121BF
:1017B000106898471E4CE2686369960707D09D073A
:1017C00005D51F4B1F4A1B68002110689847A16967
:1017D000626963698C0709D5900507D5190405D599
:1017E000174B184A1B68052110689847104A9569DD
:1017F000546915F0040504F48064526908D03CB1C2
:10180000120405D50E4B0F4A1B6807211068984734
:10181000074B5B6955B14CB11B0407D5BDE870405F
:10182000074B084A1B6802211068184770BD00BFAB
:1018300000640040010000040001000800000110E5
:101840007409002070090020FFF784BFFFF782BFF2
:10185000102300F009B8202300F006B8302300F070
:1018600003B8402300F000B8EFF30880042172466B
:101870000A4201D0EFF309809C46244B19680268A4
:101880000A60043142680A60043182680A600431E7
:10189000C2680A600431F0C147460F6004314F4608
:1018A0000F60043157460F6004315F460F6004310A
:1018B00002690A60083142690A60043182690A607B
:1018C0000431C2690A600431034620334FF40076C4
:1018D000324200D0043375461026354200D14833D9
:1018E0000C46103C2360EFF309820A600431EFF3E9
:1018F00008820A60043172460A600431EFF31482F0
:101900000A606046014900F097FBFEE7EC89000899
:1019100030B50D0E91FAA1F4B4FA84F491FAA1F164
:101920000F23B1FA81F1A40003FA04F443598900AA
:1019300023EA040302FA01F11943415130BD0000CA
:101940007FB5224B04283DD8DFE800F003101B26AA
:1019500031009A691E4842F004029A619B6903F0C3
:1019600004030193019B07B05DF804FB9A691948D1
:1019700042F008029A619B6903F008030293029BFC
:10198000F1E79A69144842F010029A619B6903F0EA
:1019900010030393039BE6E79A69104842F0200284
:1019A0009A619B6903F020030493049BDBE79A6927
:1019B0000B4842F040029A619B6903F04003059393
:1019C000059BD0E7074804F0ABF800BF00100240C9
:1019D00000080140000C01400010014000140140CB
:1019E000001801404D880008431C10B5044604D17E
:1019F00076220649064803F05FFF002100F058FFF9
:101A0000012004F00F04A04010BD00BF6E88000844
:101A1000C088000870B504464B1C0E46218218D0C1
:101A2000C1F30310FFF78CFF05463046FFF7DCFFDC
:101A3000238A084A03F00F0352F823306561A3613B
:101A400005F10803636005F1100314352060A360FD
:101A5000E56070BDE88C0008B0F9100001F028B80E
:101A600021B9082281694069FFF752BF0122F9E7D5
:101A70004C232DE9F04100254FF0010E43431F4F49
:101A80001A1D1F4C3A441F448D4203D101461D4884
:101A900004F046F83B680EFA05F61E422AD0136B96
:101AA00066690EFA03F3334224D0D2F818C063619A
:101AB0001668FEB1E26833EA020203D1A26833EA93
:101AC000020213D1A26833EA020203D1E26833EAC8
:101AD00002020DD1DCF80820134214BF01210221BB
:101AE000094B3046BDE8F0411B6818470221F7E773
:101AF0000121F5E701350432C6E700BF780900206F
:101B000000040140FA8800088C0B002006210846DA
:101B1000FFF7AEBF05210846FFF7AABF0121042049
:101B2000FFF7A6BF01210320FFF7A2BF012102207A
:101B3000FFF79EBF01210846FFF79ABF0121002051
:101B4000FFF796BF012910B518D11B4C838952B1FC
:101B5000A26803F00F0399401143A160836843F02A
:101B60000103836010BDA26803F00F03994022EACD
:101B70000101A160836823F00103F2E70229F1D19A
:101B80000D4983895AB10122CC6803F00F0302FA90
:101B900003F32343CB60836843F00203E1E70124AE
:101BA000CA6803F00F0304FA03F322EA0303CB60CD
:101BB000836823F00203D4E7000401400F22B0F948
:101BC0000C3070B599B201F00F0606F00C0404F168
:101BD000804404F5803401F00301A56889008A403F
:101BE00025EA02050122C3F303138B402B43A360B4
:101BF0000E4BB2401968114319608468E50742BF73
:101C0000996811439960A10742BFD9680A43DA6015
:101C100090F90030002B08DB0122590903F01F0363
:101C200002FA03F3024A42F8213070BD0004014079
:101C300000E100E02DE9F04F92464A1C85B0804655
:101C40000D4661D0314A324F916905F00F0941F0DC
:101C5000010191619269C5F3031002F00102039240
:101C6000039A0C2202FB09725468062C49D8DFE85B
:101C700004F0043C3E4042444600264E0193FFF7E8
:101C80005FFE0C2101FB09F157F801E07A184C21A5
:101C9000A8F80C5001254FF0000B61431E4F92F93C
:101CA00008207B5805FA0EF51D43C8F8044088F853
:101CB0000020C8F808B07D50132101FB04E4019B0B
:101CC00007EB84014B60154BC861C3F800A0144BAF
:101CD000C1F834909B681032404643F82260FFF709
:101CE0006DFF584605B0BDE8F08F0E4EC6E70E4EAC
:101CF000C4E70E4EC2E70E4EC0E70E4EBEE70E4ED4
:101D0000BCE70E4803F00CFF0846EBE7001002406A
:101D1000248900083D1B0008780900208C0B002056
:101D200000ED00E0351B00082D1B0008251B0008F6
:101D30001D1B0008151B00080D1B0008D388000898
:101D400001210C22838970B503F00F035A4301FA75
:101D500003F3DB431A4CA518A4581A4A6E68956819
:101D600001FA04F41D409560D5681D40D5601568E2
:101D70002B4013604C237343134AD358A3431ED103
:101D800090F90030002B0CDB5A0903F01F03994037
:101D900002F120030D4A42F82310BFF34F8FBFF327
:101DA0006F8F90F90030002B09DB01215A0903F0F5
:101DB0001F0301FA03F30549603241F8223070BD78
:101DC00024890008000401407809002000E100E0B7
:101DD00083894C2103F00F020C2370B40124534378
:101DE0000E4AD65843680E4A594304FA06F5545829
:101DF00024EA05045450132101FB0363002102EB84
:101E0000830461609C1D0C3302EB840402EB8303AA
:101E10006160596070BCFFF793BF00BF2489000860
:101E20007809002008B502F065FC002008BD00001C
:101E3000104B10B51B68104C63B103F013FC03F09A
:101E4000FCFB23681844002323604FF47A73B0FB33
:101E5000F3F010BD02F0B4FC23682060C31A4FF405
:101E60007A70064A9BB211680B441360B3FBF0F022
:101E700010BD00BF980B0020940B0020900B002099
:101E800000B589B003F034FD052101A803F043F942
:101E9000104E114D0424019A039B30461A6003F042
:101EA000B7FE019A049B30461A6003F0B1FE013C74
:101EB000F1D10424019A039B28461A6003F0A8FE7E
:101EC000019A049B28461A6003F0A2FE013CF1D15E
:101ED000E0E700BFF0490200801A060010B5044692
:101EE00003F006FD204605F07CF82146024602205C
:101EF00000F046FABDE8104003F010BD10B5A2B0E6
:101F00000B460246842101A805F0B2F88328044656
:101F100005D9052205490DF1830004F062FB002C70
:101F200002DD01A8FFF7DAFF22B010BDE489000846
:101F30000FB407B504A951F8040B0191FFF7DEFFB8
:101F400003B05DF804EB04B070470000F0B52C4C12
:101F5000002526462B4F85B054F8252029463846C3
:101F60000135FFF7E5FF0D2DF6D1A36C04F1340127
:101F70000293636C24480193236C244C00930EC994
:101F8000FFF7D6FF21682248FFF7D2FFE16AA26A75
:101F9000A36AA06A256BE76B000C01950090C3F360
:101FA00007230297D2B21B48FFF7C2FFA36A1D06A0
:101FB00003D5616B1848FFF7BBFFA36A180403D56C
:101FC000A16B1648FFF7B4FFF36C190712D514483C
:101FD000FFF7AEFF336DDA070FD51248FFF7A8FF02
:101FE000F36C5B074CBF1048104805B0BDE8F040EB
:101FF000FFF79EBF0E48FFF79BFF0E48EEE700BFBE
:10200000040D0020808A00088E8A000800ED00E0A0
:10201000DD8A0008EB8A00083A8B0008488B00082C
:10202000568B0008658B0008958B0008A18B000873
:10203000858B0008728B000813B504461548FFF71E
:1020400077FF302C17D0402C1AD0202C1DD11248ED
:10205000FFF76EFF114C1248FFF76AFFFFF776FF9C
:102060001048FFF765FF00230F4A0093D26B0F491A
:10207000204603F075FD0E48FFF75AFF0D4CEAE7C6
:102080000D48FFF755FF0D4CE5E70D48FFF750FFF2
:102090000C4CE0E7F0890008198A00083E01FF8037
:1020A000468A0008518A0008040D0020708A000842
:1020B000288A00083F01FF80318A00084001FF8024
:1020C0003C8A00083D01FF8008B502F0CDFA01F01E
:1020D00007F902F0BBFA02F0C7FA0122014B1A60BD
:1020E00008BD00BF980B0020002070470368012244
:1020F0001B69002118470022036811461B69184715
:1021000003681B69184703689B69184703689B6A43
:10211000184700290CBF6FF01800002070470120FD
:1021200070471120704770476FF01C0070476FF0C8
:10213000150070470120704700207047704700006D
:10214000F8B515460C46064E8F18BC4205D014F85B
:10215000011B304601F092F8F7E72846F8BD00BFB2
:10216000580D002038B58DB215F0010405D008488F
:1021700000F098FE041C18BF0124EB0605D50448A6
:1021800000F0A6FE08B144F01004204638BD00BFA0
:10219000580D002010B5044604F0FEF9204610BD8D
:1021A00010B50C462AB1044801F052F82070012005
:1021B00010BD104610BD00BF580D002038B51D469B
:1021C000074B04460360074B1B6833B9064800F011
:1021D000D9FE2946044800F0AFFE204638BD00BFB6
:1021E000B88B0008FC0B0020580D00200020704721
:1021F0000020704708B5012000F096F90C4A10B590
:1022000013681844EFF30881884205D30C22094B68
:102210004FF0FF301A6010BD07490C6824B1074920
:10222000096821448842F1D21060184610BD00BFF1
:10223000F4010020B00E0020B40B0020B80B0020E9
:102240000120704701207047002104F0C7BD70478E
:10225000704708B5FFF7FBFF08BD08B5FFF7F8FFAB
:1022600008BD000008B5037803F00302012A0BD073
:102270002AB140F28C520549054803F01DFB43F09A
:1022800002030370012008BD002008BD1D8C00085A
:102290006C8C000808B5037803F00302022A05D00D
:1022A00040F294520449054803F006FB23F003036F
:1022B00043F00103037008BD1D8C0008928C0008D8
:1022C0003F2870B504462FDC184D55F820305A1CB5
:1022D00013D1022811DCFFF78BFF034658B92046C3
:1022E000FFF784FF034630B9114E3378BFF35B8F9D
:1022F000DB0704D50F4B45F82430184670BD304637
:10230000FFF7B0FF0028F5D04FF416530322022147
:102310000848FFF753FF3046FFF7BCFF064A07495E
:102320000448FFF78DFFE5E70023E6E7F40000200F
:102330009C0B0020B00B0020F00000203D21000885
:1023400038B505460024FFF7BBFF0B4B43F825408B
:1023500030B903F041FD092303604FF0FF3038BD71
:1023600003685B699847051E04DA03F035FD6D428A
:102370000560F2E7204638BDF4000020FFF7E0BF1B
:1023800038B50C461546FFF79BFF38B903F024FD1E
:10239000092303604FF0FF34204638BD036821460F
:1023A000DB682A469847041EF6DA03F015FD6442FE
:1023B0000460EFE708B5131E06DA03F00DFD1623DF
:1023C00003604FF0FF3008BD04D0FFF7D9FF40EAAB
:1023D000E07008BD184608BD38B50C461546FFF735
:1023E0006FFF38B903F0F8FC092303604FF0FF34A6
:1023F000204638BD036821469B682A469847041E3C
:10240000F6DA03F0E9FC64420460EFE7002A08B55D
:1024100003DBBDE80840FFF7DFBF03F0DDFC162358
:1024200003604FF0FF3008BD10B5FFF749FF0446C9
:1024300028B903F0D1FC09230360204610BD0368CE
:10244000DB699847041EF8DA03F0C6FC64420460B6
:102450000024F2E71FB504220C4640230DEB0201D5
:1024600001900DF109008DF8083004F0BAF821460A
:1024700002A803F0F7FE044630B10198FFF7D4FF3D
:1024800010B12046FFF7E0FE204604B010BDFFF774
:10249000CBBF38B50C461546FFF712FF38B903F02D
:1024A0009BFC092303604FF0FF34204638BD0368CE
:1024B00021461B692A469847041EF6DA03F08CFC75
:1024C00064420460EFE7FFF7E4BF10B5FFF7F8FEE2
:1024D00030B903F081FC092303604FF0FF3010BDD9
:1024E00003689B699847041E04DA03F075FC644294
:1024F0000460F2E7002010BD05460A4C08B52368C9
:10250000986803F07BFD2368D86803F077FD01200D
:10251000FFF7DBFF0220FFF7D8FF0DB1FFF7B0FC9C
:10252000FEE700BF0002002008B5FFF7E5FF38B561
:102530000D46FFF7C5FE044630B903F04DFC0923F4
:1025400003604FF0FF3038BD0368DB69984700280F
:1025500014BF4FF400534FF400436B6023682046D0
:102560009B6A98472861002038BDFFF7E0BF000054
:1025700013B5044604F008F8034628B90090224633
:102580000249034803F0ECFA02B010BD008C0008C9
:102590001F01018004F000B810B504460948FEF799
:1025A00043FD00231946084A52F82300A04208BF01
:1025B00042F823100133402BF6D10248FEF734FDD8
:1025C00010BD00BFA00B0020F400002010B50324B4
:1025D0000E48FEF729FD0E4B53F824206AB1013452
:1025E000402CF9D103F0F8FB182303600748FEF7ED
:1025F0001BFD4FF0FF34204610BD4FF0FF32034863
:1026000043F82420FEF710FDF5E700BFA00B0020E3
:10261000F400002010B50446FFF7D8FF0028A4BF3F
:10262000014B43F8204010BDF400002070B5064671
:102630000C46FFF7EFFF054690B12146FFF70AFF72
:10264000044630B9074B53F82520964203D143F88E
:102650002500204670BD03F0BFFB09230360F8E7A7
:102660000446F6E7F40000200EB42DE9F04185B0F1
:102670000546FFF7ABFF041E13DB0023294602A823
:10268000019303F005F802A803F052F81B4D06462B
:1026900068B903F0A1FB1323036045F824604FF0F1
:1026A000FF34204605B0BDE8F04103B0704702A8F2
:1026B00003F02CF8074602A837B103F030F8019078
:1026C000019B45F82430ECE703F017F80646002894
:1026D000DFD0036802A8D3F8088003F003F80B9B4F
:1026E000024601A93046C04706460028E8D003F05C
:1026F00073FB7642066045F82470D0E7F4000020B2
:1027000073B50E461849054604F061FC044620B92D
:10271000FFF7D6FD204602B070BD1449284604F0EC
:1027200056FC20B90120FFF7CBFD0124F2E7104948
:10273000284604F04CFC20B90220FFF7C1FD02241A
:10274000E8E72B78402B07D10422691C0DEB02002F
:1027500003F047FF019CDDE726F400412846FFF720
:1027600083FF0446D6E700BFD98C0008E08C000840
:10277000D18C000870477047074B10B59A6807491D
:102780000748043A52F8044F41F8044F8142F9D106
:102790004FF000529A6010BD00ED00E0FCFFFF1FFB
:1027A000E800002008B5FFF7E7FFFFF78DFCFFF713
:1027B000E2FF08BD08B5FFF7DDFFBDE80840FEF702
:1027C000A9BC30B50D0E91FAA1F4B4FA84F491FAD3
:1027D000A1F10F23B1FA81F1A40003FA04F44359E3
:1027E000890023EA040302FA01F11943415130BD83
:1027F00030B50D0E91FAA1F4B4FA84F491FAA1F176
:102800000423B1FA81F1A40003FA04F443598900C6
:1028100023EA040302FA01F11943415130BD10B516
:1028200091FAA1F2B2FA82F291FAA1F394000F2286
:10283000B3FA83F3090E4058A24010409B00D840E1
:1028400010BD70B5164605460C46FFF7E8FF012E91
:102850000AD0022E1CD0082829D121462846BDE8DE
:1028600070400422FFF7ADBF042804D1082221469E
:102870002846FFF7A6FFEB68240A94FAA4F223EA9D
:102880000404B2FA82F2012393401C43EC6070BD51
:10289000042804D1082221462846FFF792FFEB685E
:1028A000240A23EA040394FAA4F4EB6070BD70BD1B
:1028B000B0F1FF3F2DE9F3478246894604D13E221D
:1028C0007549764802F0F8FF1FFA80F8744B08F05B
:1028D0000F02C0F3031001F0070553F82240FFF781
:1028E0002FF8012D06466F4F40F0C780210E94FA55
:1028F000A4F3B3FA83F394FAA4F04FF0030EB0FA02
:1029000080F072589B000EFA03F322EA03032A4672
:1029100080000EFA00FE43EA0E0373502146304653
:10292000013DFFF74EFF012D07D819F0080218BF2F
:10293000042221463046FFF75BFFC9F3011221460E
:102940003046FFF77EFFBB6943F00103BB61BB6903
:1029500003F001030193019BA8F10D03012B79D82A
:10296000514A536823F0E06343F080635360A8F159
:102970001308B8F1010F77D86FE0BB69C9F30322E0
:1029800043F00103BB61BB6903F001030093009BAB
:1029900082B1531E092B0DD8DFE803F0050E151C7C
:1029A000232C353E454D404A536843F0E06343F0E5
:1029B000010353600922B1E73B4A536843F0E063E7
:1029C00043F00203F5E7384A536843F0E06343F00D
:1029D0000403EEE7344A536843F0E06343F008032E
:1029E000E7E7314A536823F0300343F0E06343F0F4
:1029F0001003DEE72C4A536823F0C00343F0E06382
:102A000043F04003D5E7284A536823F4406343F07A
:102A1000E06343F40063CCE7234A536843F0E06388
:102A200043F44073C5E720494B6843F0E06343F447
:102A300040634B6072E71C4A536823F4C04343F081
:102A4000E06343F48043B4E767221349174839E74A
:102A5000002263E7BAF10F0F89D1134A536823F0BC
:102A6000E06343F00073536002B0BDE8F0870122D9
:102A700021463046FFF7A5FE57E7032DE4D801A312
:102A800053F825F0952A00086F2A00087B290008D2
:102A9000512A0008082241E7288D0008C088000854
:102AA000E88C000800100240000001401F9200085E
:102AB000431C70B50E4604D188221A491A4802F008
:102AC000FBFE1A4B00F00F02C0F3031053F8224034
:102AD000FEF736FF21460546FFF7A1FE20F008006D
:102AE000012807D1F31E022B0DD8042221462846C7
:102AF000FFF77EFE032E0BD1012221462846BDE8BA
:102B00007040FFF79EBE002221462846FFF770FE68
:102B1000012EF1D0052E01D0022E01D10222ECE7C8
:102B20000022EAE7288D0008C0880008E88C000829
:102B300030B50C460268284B89B005461A60002162
:102B4000204605F007FA50BB4FF07E51204605F0B5
:102B50001FFA08B14FF07E54E86805F005F82146E9
:102B600005F05AF804F0D6FE1C4B002204F074FD68
:102B700004F024FF60230193AB682861B0FBF3F0FD
:102B80000023039305930693049307932B7D0290F0
:102B9000013B032B1BD8DFE803F012040E100024C6
:102BA000DAE70424224601A90B4801F03FFB40B1BB
:102BB0000B4802F0B5FF0824F4E70C24F2E70024E8
:102BC000F0E76B7D214604481BB101F0EBFB09B037
:102BD00030BD01F0C3FBFAE7BC0B00200000E03F72
:102BE000F98D000838B5C46894B1006904F0BCFFE1
:102BF0000546204604F0B8FF0146284605F0C0F817
:102C00004FF07E51044605F0C3F918B9204638BD8F
:102C10000024FBE74FF07E54F8E7000000232DE985
:102C2000F04FD0F80080494C87B0009305460E461F
:102C3000C4F80080FFF7D6FF41F21113D8F8202026
:102C400083461A420BD140F24443D8F820201A425E
:102C500002BFD8F8003023F00103C8F8003001A803
:102C6000694601F0B9F800222868394BD1B253F80F
:102C7000317001328742F9D110B9364802F050FF65
:102C800003EBC1031B79002B3ED101F085F80090C6
:102C9000049801230099AB602F4B002839D1B1FB78
:102CA000F3F3013B63602C4B4FEA4108B1FBF3FEA9
:102CB000002106F1FF3CB8FBF3F88A4663464FF665
:102CC000FE796268C4F80CC0B3F5803F25D2B2F536
:102CD000803F22D2BAF1000F00D0626001B1E36000
:102CE00000231A482361A36001F05AFA30BBEE605A
:102CF00059462846FFF71CFF2268136843F001037A
:102D0000136007B0BDE8F08F01F056F80090059809
:102D1000BFE74A00B2FBF3F3C3E7AB685B00AB600D
:102D200070B90EFB03F2BCFBF3F34B4502F1FF322B
:102D300009D8B2F5803F06D36260E36007489DE79B
:102D400008FB03F2EFE701218A46BDE7BC0B002038
:102D5000108E0008E48D000840420F00F98D000835
:102D600030B50D46044685B03249284602F01EFAB9
:102D70002060013004D12E222F49304802F09CFD02
:102D80002C49284602F034FA431C03D132222A4946
:102D90002B48F3E7C0F3043323752A4A2368C0F3B2
:102DA0004040934260751AD1274B9A6942F4006201
:102DB0009A619B6903F400630093009B28461D49B8
:102DC00002F0ACF90023E36023610123A580A36036
:102DD00044F620612046FFF721FF05B030BDB3F176
:102DE000804F0BD103F50433DA6942F00102DA6156
:102DF000DB6903F001030193019BDFE7134A934270
:102E00000AD1114BDA6942F00202DA61DB6903F0A0
:102E100002030293029BD1E70D4A9342CED10A4BA3
:102E2000DA6942F00402DA61DB6903F00403039318
:102E3000039BC3E7DC850008788D0008CC8D000873
:102E40001E880008002C01400010024000040040D1
:102E50000008004038B50446084604F089FE0546DF
:102E6000E06804F081FE0146284604F089FF01462F
:102E70002046BDE83840FFF75BBE00000FB407B541
:102E8000064B05AA1B680649D868019203F0FAFCB4
:102E900003B05DF804EB04B0704700BF00020020EF
:102EA000388E00084368094A9B01D35882B01A68DB
:102EB000120706D5002201921A6801925A680192FF
:102EC000019A1868C0F3401002B07047A40D0020AA
:102ED0004368034A9B01D3581868C0F3C010704779
:102EE000A40D0020426810B41249046892015450A5
:102EF000531882685A60C2689A600269DA6042694F
:102F00001A61026A9A610022DA84DA619A84DA85A7
:102F10009A85B0F91A20013205D108225A61184663
:102F200010BC01F0F0BAB0F9182001320CBF042235
:102F30000C22F3E7A40D002010B581600C46FFF7CA
:102F4000D1FF28B12146BDE810400248FFF796BFE7
:102F500010BD00BF388E0008094B98420BD0A3F576
:102F60007443984209D003F5806398420CBF022055
:102F70004FF0FF307047002070470120704700BFBE
:102F800000380140F0B50E4685B00446434930464E
:102F9000154602F00BF942490746284602F006F9A9
:102FA0000146384602F0DEF82060013004D13D22AF
:102FB0003C493D4802F080FC022E0AD0032D08D087
:102FC0003649022002F0F2F887421BD1374802F05E
:102FD000A7FD01272068364B984215D103F55843C9
:102FE0009A6942F480429A619B6903F48043019399
:102FF000019BFFF7B1FF0028606023DAA422294972
:103000002C48D7E70027E5E72B4B98420BD103F577
:10301000E633DA6942F40032DA61DB6903F4003343
:103020000293029BE5E7254B9842E2D103F5E43396
:10303000DA6942F48022DA61DB6903F480230393C6
:10304000039BD6E71549304602F068F81449284634
:1030500002F064F8721C03D001213046FFF728FD0E
:103060006B1C03D001212846FFF722FD4FF41653B5
:10307000A36000232683E360236163612362658389
:103080002046FFF72FFF3FB101220D4B21461A606A
:103090000C484C2203F0A5FA05B0F0BD44870008A7
:1030A000FC860008628E0008B68E0008D28E0008EA
:1030B00000380140078F00080044004000480040ED
:1030C000FC0B0020580D0020002808DB01234209DA
:1030D00000F01F0003FA00F0014B43F82200704794
:1030E00000E100E000280DDB0122430900F01F0091
:1030F00002FA00F0044A203342F82300BFF34F8F56
:10310000BFF36F8F704700BF00E100E0F7B5FFF736
:1031100023FF071E26DB144E56F8270010B3134C6E
:10312000BD0163591A68120606D5DB68190603D576
:103130000F4B01211B68984763591A68920608D5FE
:10314000DB68980605D50A4B00211B6856F8270056
:10315000984763591A68110704D55A69D20744BFC2
:103160005B68019303B0F0BD040C0020A40D0020A7
:10317000000C00200148FFF7C9BF00BF0048004015
:103180000148FFF7C3BF00BF004400400148FFF7FC
:10319000BDBF00BF00380140034B19604168034BBD
:1031A00043F82120704700BF000C0020040C0020D1
:1031B00030B409C81E4CA04213D125201D4C1E4D11
:1031C0009B01FAB1EA58D368C9B943F02003D36030
:1031D0001A4B00F110029B6843F8224030BCFFF705
:1031E00073BF174CA04202D1164C2620E7E7164CBD
:1031F000A04213BF0024154C27202046DFE743F0F0
:103200008003E4E7EB58DA6849B922F02002DA607B
:10321000DB6813F0800F09D130BCFFF763BF22F0E9
:103220008002DA60DB6813F0200FF4E730BC7047EF
:10323000003801408D310008A40D002000ED00E0B1
:10324000004400408131000800480040753100080A
:1032500038B5054644682846FFF724FE0028FAD012
:10326000054AA301D358E968586809B9C0B238BD06
:10327000C0F3080038BD00BFA40D002070B506469D
:103280000C4645683046FFF723FE0028FAD0054A71
:10329000F168AB01D35811B9E4B25C6070BDC4F3FE
:1032A0000804FAE7A40D002008488546002103E041
:1032B000074B5B58435004310648074B42189A426B
:1032C000F6D301F063F9FCF757FFFEE7005000204A
:1032D000EC960008F000002078020020FEE770471E
:1032E000074A08B51368032043F01003136000F089
:1032F000D5FA0F20FEF796FDFFF7F1FF002008BD7D
:103300000020024070470000F7B5002604460D4635
:103310000196FEF78DFD236807469A68D20508D509
:103320000120A36A84F8246043F02003A36203B061
:10333000F0BD5A68D60503D4DB6A13F4700F3BD096
:103340003A4B02201E6800F0DDFD2368384A1969F7
:10335000B6FBF0F01142374A4FD1DE6836490E42D3
:103360004BD11969114259D1DA68344B1A4214BF52
:103370002923142300FB03F6019B9E4220D96B1CDA
:1033800005D05DB1FEF754FDC01B854206D3019BFD
:1033900001330193F0E7681C0FD045B9A36A0320FD
:1033A00043F00403A362002384F82430BFE7FEF750
:1033B0003FFDC01B8542F1D3226813689907EAD507
:1033C0006FF0120322681360A36A43F40073A362D0
:1033D000936803F46023B3F5602F25D1E3681BBB2A
:1033E000A36A23F48073A362A06A10F480501BD1F7
:1033F000A36A43F00103A36299E71969114203D15B
:10340000D9680E4A11420BD019690D4A114209D1EF
:10341000DB68134214BFFC235423ABE72923A9E73D
:103420005423A7E7FC23A5E7002080E7F80100204C
:10343000244992249224491224499200922449005A
:10344000499224000368D86C70470000002373B5CC
:10345000019390F82430012B74D001234D6880F83B
:103460002430062D02684FEA85030C6825D82B44CA
:103470001F25566B053B9D4026EA050504FA03F31C
:103480002B435363092C4FEA44038D682FD9072639
:103490002344D1681E3B9E4021EA060105FA03F34E
:1034A0000B43D360A4F11003012B2BD9002300227E
:1034B00080F82420184602B070BD0C2D0BD82B4488
:1034C0001F25166B233B9D4026EA050504FA03F3EE
:1034D0002B431363D6E72B441F25D66A413B9D40FF
:1034E00026EA050504FA03F32B43D362CAE707264D
:1034F000116923449E4021EA060105FA03F30B43B8
:103500001361CFE7104B9A4216D193681B02CDD4BA
:103510009368102C43F400039360C7D10B4B0C4A03
:103520001B68B3FBF2F20A2353430193019B002B68
:10353000BCD0019B013BF8E7836A43F02003836220
:103540000123B4E70223B5E700240140F80100207D
:1035500040420F00002373B50193036804469A6844
:10356000D20702D5002002B070BD9A6842F0010275
:103570009A60124B124A1B68B3FBF2F30193019B52
:10358000C3B9FEF755FC064623689D6815F0010592
:10359000E8D1FEF74DFC801B0228F5D9A36A84F818
:1035A000245043F01003A362E36A012043F00103B7
:1035B000E362D8E7019B013BE0E700BFF801002090
:1035C00040420F0090F8243010B5012B044654D02F
:1035D000012380F82430FFF7BDFF002849D1A36AFA
:1035E000274A23F4407323F0010343F48073A3625A
:1035F0002368934204D123494A6812F4702F2ED1D4
:10360000A26A22F48012A2625A68520541BFA26ADD
:1036100022F4405242F48052A262A26A12F4805212
:103620001CBFE26A22F00602E262002284F8242033
:103630006FF002021A609A6802F46022B2F5602FFD
:1036400013D10F4A934205D1A2F58062526812F459
:10365000702F0AD19A6842F4A0029A6010BDA26A43
:1036600042F48012A2624A68CFE79A6842F480125C
:10367000F3E7002384F8243010BD022010BD00BF02
:10368000002801400024014038B5036804469A68C8
:10369000D20701D4002038BD9A6822F001029A6056
:1036A000FEF7C6FB054623689B68DB07F2D5FEF7ED
:1036B000BFFB401B0228F6D9A36A012043F0100388
:1036C000A362E36A43F00103E36238BD70B50446C8
:1036D000002871D0836A23B9C36280F82430FFF7D1
:1036E00011FE2046FFF7D0FFA36A13F0100FA36A64
:1036F00064D1002862D1E16923F48853626823F021
:10370000020343F002030A43A168A362E368B1F530
:10371000807F42EA430238D0012914BF06464FF4A5
:1037200080766569012D07D1002B30D1A369013B5B
:1037300046EA433545F400662368B1F5807F5D684D
:1037400025F4694545EA06055D609E681D4D05EA5C
:10375000060545EA02059D6001D0012920D12169B5
:1037600001390905DD6A25F470052943D962996894
:10377000154B0B409A4215D10023E362A36A23F054
:10378000030343F00103A36270BD0E46C9E7A36AB9
:1037900043F02003A362E36A43F00103E362CBE753
:1037A0000021DFE7A36A23F0120343F01003A362B2
:1037B000E36A43F00103E362012070BD43F01003AC
:1037C000A362F9E7FDF7E1FFFE0E1FFF002373B5CB
:1037D000019390F824300446012B5AD0012380F83D
:1037E0002430FFF751FF0546002832D1A36A02209A
:1037F00023F4885323F0020343F00203A362264B11
:103800001E6800F07FFBB6FBF0F040000190019BCA
:103810001BBB2046FFF79EFE2268936843F0080317
:103820009360FEF705FB064623689A68120718D4D2
:103830009A6842F004029A60FEF7FAFA0646236894
:103840009B685B071FD4A36A23F0030343F00103C3
:10385000A362002384F8243012E0019B013B019312
:10386000D5E7FEF7E5FA801B0A28DDD9A36A012512
:1038700023F0120343F01003A362002384F82430E2
:10388000284602B070BDFEF7D3FA801B0A28D6D9AD
:10389000ECE70225F4E700BFF8010020074A000228
:1038A000D36800F4E06023F4E0631B041B0C43F0D6
:1038B000BF6343F400330343D360704700ED00E07F
:1038C00003682DE9F341DB07054610D42B689F07F9
:1038D0005ED42B68190700F195802B685A0700F118
:1038E000BF80EA69002A40F02D81002014E0904C4E
:1038F000636803F00C03042B07D0636803F00C0328
:10390000082B0CD16368DE0309D523689C03DDD541
:103910006B68002BDAD1012002B0BDE8F0816B6842
:10392000B3F5803F10D1236843F480332360FEF762
:103930007FFA064623689803C8D4FEF779FA801BFD
:103940006428F7D90320E7E79BB9236823F4803381
:103950002360236823F480232360FEF769FA064678
:1039600023689903B2D5FEF763FA801B6428F7D960
:10397000E8E7B3F5A02F236803D143F48023236045
:10398000D1E723F480332360236823F48023CDE739
:10399000674C636813F00C0F07D0636803F00C03E7
:1039A000082B10D16368DA030DD423689B0702D576
:1039B0002B69012BAFD123686A6923F0F80343EA2E
:1039C000C203236085E72A695A4B6AB101221A6053
:1039D000FEF72EFA064623689F07ECD4FEF728FA76
:1039E000801B0228F7D9ADE71A60FEF721FA0646D8
:1039F000236898077FF56DAFFEF71AFA801B02283F
:103A0000F6D99FE7AA694A4C4B4BDAB101221A60FA
:103A1000FEF70EFA0646636A9B070DD54FF4FA527D
:103A2000464B1B68B3FBF2F3019300BF019B5A1E88
:103A30000192002BF9D150E7FEF7FAF9801B02281A
:103A4000E9D97FE71A60FEF7F3F90646636A9F0734
:103A50007FF543AFFEF7ECF9801B0228F6D971E73A
:103A6000334CE369D80024D40127E36943F0805341
:103A7000E361E36903F080530093009B304E3368A9
:103A8000D90518D5EB68012B26D1236A43F0010331
:103A90002362FEF7CDF941F288368046236A9B0700
:103AA0003FD5002F3FF41DAFE36923F08053E3615E
:103AB00017E70027E2E7336843F480733360FEF7CB
:103AC000B7F980463368DA05DCD4FEF7B1F9A0EB2C
:103AD00008006428F6D935E7ABB9236A41F2883883
:103AE00023F001032362236A23F004032362FEF719
:103AF0009FF90646236A9807D3D5FEF799F9801BEC
:103B00004045F7D91EE7052B236A03D143F0040390
:103B10002362BAE723F001032362236A23F004033C
:103B2000B6E7FEF785F9A0EB0800B042B6D909E781
:103B3000001002400000424280044242F80100208E
:103B400000700040224C636803F00C03082B3FF424
:103B5000E2AE00231F4E022A33602BD1FEF768F934
:103B60000746236899011FD42B6AB3F5803F05D11E
:103B70006268A96822F400320A436260696A626876
:103B80000B4322F474121343636001233360FEF786
:103B90004FF9054623689A013FF5A7AEFEF748F9AD
:103BA000401B0228F6D9CDE6FEF742F9C01B0228D9
:103BB000D7D9C7E6FEF73CF9054623689B017FF598
:103BC00094AEFEF735F9401B0228F6D9BAE600BFDD
:103BD000001002406000424230B5194B87B002AC81
:103BE00003F11005224618685968083303C2AB4236
:103BF0001446F7D101238DF80430022311498DF8C2
:103C000005304B6803F00C02082A17D1C3F3834236
:103C100006A80244DB0312F8102C0CD54B680A48A6
:103C2000C3F34043504306AA134413F8143CB0FBBB
:103C3000F3F007B030BD05485043FAE70248F8E713
:103C4000198F00080010024000127A0000093D00A0
:103C50004D4A2DE9F0411368054603F007038B42F6
:103C60000E4628D32A68910732D4D20738D4464A60
:103C7000136803F007039E4273D32A68434C12F083
:103C8000040F79D1130706D563682A6923F46053BA
:103C900043EAC2036360FFF79FFF63683C4AC3F3D4
:103CA0000313D35CD8403B4B18600F20FEF7BAF8E3
:103CB0000020BDE8F081136823F007030B43136075
:103CC000136803F007039942CCD00120BDE8F081CE
:103CD0002E49A8684B6823F0F00303434B60C4E708
:103CE0006A682A4C012A23681CD113F4003FECD0E7
:103CF000636841F2883823F0030313436360FEF7DF
:103D000097F86B680746012B14D1636803F00C0326
:103D1000042BACD0FEF78CF8C01B4045F5D903202E
:103D2000BDE8F081022A02D113F0007FDFE713F033
:103D3000020FDCE7022B0FD1636803F00C03082BA2
:103D400095D0FEF775F8C01B4045F5D9E7E7FEF7BB
:103D50006FF8C01B4045E2D8636813F00C0FF6D132
:103D600085E7136823F0070333431360136803F0F8
:103D700007039E42A9D180E76368E96823F4E06302
:103D80000B4363607EE700BF00200240001002404A
:103D90004D8F0008F8010020044B054A5B68C3F30F
:103DA0000223D35C034A1068D840704700100240D9
:103DB0005D8F0008F8010020044B054A5B68C3F3DF
:103DC000C223D35C034A1068D840704700100240F9
:103DD0005D8F0008F80100200F2303600B4B5A6829
:103DE00002F0030242605A6802F0F00282605A68F0
:103DF00002F4E062C2605B68DB0803F4E063036125
:103E0000034B1B6803F007030B6070470010024070
:103E10000020024003682DE9F341D907054620D56B
:103E2000354CE369DA0032D40127E36943F080536B
:103E3000E361E36903F080530193019B2F4E3368E4
:103E4000DB0526D5236A13F4407336D1236A6A68EA
:103E500023F44073134323621FB1E36923F08053BB
:103E6000E3612868830706D5234AA968536823F4C9
:103E700040430B43536010F010001BD01E4AE9680A
:103E80005368002023F480030B43536012E00027A3
:103E9000D4E7336843F480733360FDF7C9FF80468D
:103EA0003368D805CED4FDF7C3FFA0EB0800642823
:103EB000F6D9032002B0BDE8F0816A6802F44072CE
:103EC0009342C3D001200E4A236A1060002023F4DD
:103ED000407110602162D907B8D5FDF7A9FF41F202
:103EE00088380646236A9A07B0D4FDF7A1FF801BE5
:103EF0004045F7D9DDE700BF0010024000700040E8
:103F00004004424270B50446364B86B002AD03F120
:103F100010062A4618685968083303C2B34215468A
:103F2000F7D101238DF8043002239C428DF805302F
:103F300049D0102C17D0012C51D140F202312A4A1D
:103F4000136A1940B1F5817F46D003F44073B3F58D
:103F5000007F2DD1536A13F0020F0CBF00204FF4E5
:103F6000FA4006B070BD204B5968186810F0807098
:103F7000F7D0C1F3834206A8024412F8100CCA031A
:103F800041BF5A6806A9C2F34042521844BF12F812
:103F9000141C164A5B684CBFB2FBF1F2144A5B0278
:103FA00002FB00F0DDD403234000B0FBF3F0D8E7C0
:103FB000B3F5407F13D113684FF2244013F4003F50
:103FC00008BF0020CDE7FFF7F7FE074B5B68C3F3A0
:103FD000813301335B00E8E74FF40040C1E7002084
:103FE000BFE700BF298F00080010024000127A00CE
:103FF00000093D00036A70B523F001030362036A00
:10400000446882690D6822F073022A438D6823F0A8
:1040100002032B430A4DA8420BD1CD6823F00803BD
:104020002B438E694D6924F44074354323F0040317
:104030002C43446082614A684263036270BD00BFE2
:10404000002C0140036A70B523F480730362036A95
:104050004468C2690D6822F073022A438D6823F414
:10406000007343EA05230B4DA8420DD1CD6823F41C
:10407000006343EA05238E694D6924F440543543B7
:1040800023F4806344EA05144460C2614A68C26351
:10409000036270BD002C0140036A30B523F48053E5
:1040A0000362036A4468C2690D6822F4E64242EA88
:1040B00005228D6823F4005343EA0533064DA842D8
:1040C00002BF4D6924F4804444EA85144460C2610F
:1040D0004A680264036230BD002C0140704702232D
:1040E000026880F83D30136843F001031360012338
:1040F00080F83D3000207047704700001A4A03687E
:1041000090420AD0B0F1804F07D0A2F5943290428D
:1041100003D002F58062904215D14A6823F0700303
:104120001343114A90420AD0B0F1804F07D0A2F554
:104130009432904203D002F58062904203D1CA6863
:1041400023F4407313434A6923F08003134303604D
:104150008B68C3620B688362034B984204BF0B6990
:104160000363012343617047002C014010B50446EE
:10417000A0B190F83D3003F0FF021BB980F83C205D
:10418000FFF7ACFF0223206884F83D30211DFFF7C4
:10419000B5FF0123002084F83D3010BD012010BD83
:1041A00010B50446A0B190F83D3003F0FF021BB9F2
:1041B00080F83C20FFF7A0FF0223206884F83D3000
:1041C000211DFFF79BFF0123002084F83D3010BD27
:1041D000012010BD036A70B523F010030362036A67
:1041E000446882690D6822F4E64242EA05228D683D
:1041F00023F0200343EA05130B4DA8420DD1CD68EF
:1042000023F0800343EA05138E694D6924F440646A
:10421000354323F0400344EA8504446082614A68E0
:104220008263036270BD00BF002C014038B590F876
:104230003C300446012B4FF0020025D0012384F8C6
:104240003D0084F83C300C2A18D8DFE802F007174C
:1042500017171E1717172F17171740002068FFF79B
:10426000C9FE236809699A6942F008029A619A694D
:1042700022F004029A619A690A439A61012300209C
:1042800084F83D3084F83C0038BD2068FFF7A2FF79
:10429000236809699A6942F400629A619A6922F472
:1042A00080629A619A6942EA0122E6E72068FFF794
:1042B000C9FE23680969DA6942F00802DA61DA693D
:1042C00022F00402DA61DA690A43DA61D6E720688B
:1042D000FFF7E2FE23680969DA6942F40062DA61F5
:1042E000DA6922F48062DA61DA6942EA0122ECE7F3
:1042F00010B50124036A8C4023EA04030362036AB5
:104300008A401A43026210BD10B5044600220068BC
:10431000FFF7EEFF2368104A93420DD141F21112CC
:10432000196A114208D140F24442196A114202BF8F
:104330005A6C22F400425A6441F21112196A114275
:1043400008D140F24442196A114202BF1A6822F0B1
:1043500001021A60002010BD002C014010B5044677
:1043600001220068FFF7C4FF2368064A0020934239
:1043700002BF5A6C42F400425A641A6842F00102C9
:104380001A6010BD002C0140FFF7E8BF10B50424EF
:10439000036A8C4023EA04030362036A8A401A43D7
:1043A000026210BD10B5044604220068FFF7EEFF5C
:1043B000236800205A6C42F400425A641A6842F0A2
:1043C00001021A6010BD00002DE9F0470568C268BF
:1043D0002B69016923F4405313432B618368EA6816
:1043E0000B43416922F4B05222F00C020B431343F9
:1043F000EB606B69826923F4407313436B61404B3C
:1044000081469D424FF0190446D1FFF7D5FC04FBCD
:1044100000F3D9F804604FF06408B600B3FBF6F37C
:10442000B3FBF8F31E01FFF7C7FC6043D9F8043073
:104430009B00B0FBF3F7FFF7BFFC6043D9F80430F3
:104440009B00B0FBF3F3B3FBF8F308FB13731B0102
:104450003233B3FBF8F303F0F007FFF7ADFC604332
:10446000D9F804209200B0FBF2FAFFF7A5FC6043F4
:10447000D9F804309B00B0FBF3F3B3FBF8F308FB6F
:1044800013A31B013233B3FBF8F303F00F033B43D9
:104490003344AB60BDE8F087FFF77EFC04FB00F31C
:1044A000D9F804604FF06408B600B3FBF6F3B3FB31
:1044B000F8F31E01FFF770FC6043D9F804309B004D
:1044C000B0FBF3F7FFF768FC6043D9F804309B00BA
:1044D000B0FBF3F3B3FBF8F308FB13731B013233A8
:1044E000B3FBF8F303F0F007FFF756FC6043D9F88D
:1044F00004209200B0FBF2FAFFF74EFCB7E700BFD2
:1045000000380140704710B5044640B390F8393088
:1045100003F0FF021BB980F83820FFF7F3FF2423D4
:10452000226884F83930D368204623F40053D360DE
:10453000FFF74AFF236800201A6922F490421A61AB
:104540005A6922F02A025A61DA6842F40052DA60AB
:104550002023E06384F8393084F83A3010BD01201C
:1045600010BD7FB50F23022101934FF48062002319
:1045700001A80291039304920593FFF769FBB0FA37
:1045800080F0400907B05DF804FB00000F4B1A688B
:1045900042F001021A6059680D4A0A405A601A68CE
:1045A00022F0847222F480321A601A6822F4802287
:1045B0001A605A6822F4FE025A604FF41F029A6091
:1045C0004FF00062034B9A60704700BF001002403A
:1045D0000000FFF800ED00E0012310B58AB0009361
:1045E000A0B94FF480330193022307934FF4803333
:1045F000002408934FF4E013684602940993FFF7F0
:104600005FF930B9FFF7ADFF0AB010BD4FF4A0233A
:10461000E9E72046F8E7032310B58AB000930123A9
:104620000493102305930223002407934FF460138F
:104630006846019408940993FFF742F918B9FFF707
:1046400090FF0AB010BD2046FBE7000008B501202E
:10465000FFF7C2FF28B9FFF7DEFF10B9014801F0EC
:104660005FFA08BD398F0008114A124B516801F0FA
:104670000C01042901D008290AD00F491960526899
:104680000E49C2F30312895C1A68CA401A60704767
:1046900051685068C1F38341C00301F1020102D4A3
:1046A00007484143EAE750688003F9D40248F8E735
:1046B00000100240F801002000127A004D8F00081F
:1046C00000093D00074B084A13601A69910707D596
:1046D000DA68920704D56FF002021A6100F0C6BFD3
:1046E000704700BF00080040680E00200048704777
:1046F000688F0008224B37B5DA69224C42F0040279
:10470000DA61DA69002502F004020192019A1A695D
:1047100042F004021A611A6922F004021A61FFF7DA
:10472000A3FF194B194A23604FF6FF73E360184B40
:1047300020461B682561B3FBF2F3013B6360A56073
:104740006561A561FFF712FD29462046FFF71CFEB3
:10475000104B114A9B682046C3F8B8204FF08042A6
:104760000E4B1A60FFF7BBFC2268D36823F00203EC
:10477000D3600B4B1D600B4B1D6003B030BD00BF01
:1047800000100240680E00200008004040420F0068
:10479000F801002000ED00E0C546000800E100E05F
:1047A000940B0020900B0020044800210268D3687D
:1047B00023F00203D360FFF7E7BD00BF680E0020BF
:1047C000014B586A704700BF000800406FF00202BA
:1047D000044B1B6858631A61DA6842F00202DA601F
:1047E000704700BF680E00206FF00202054B1B6887
:1047F0001A615A6942F002025A61DA6842F0020212
:10480000DA607047680E0020034B1A68D36823F003
:104810000203D360704700BF680E00206FF00202F1
:10482000014B1B681A617047680E002008B5002113
:104830000348FFF769FDBDE80840FFF7E5BF00BF8B
:10484000680E00207047000070B504460546074B0F
:1048500000F1440644F8043B54F8040B08B1FDF79A
:1048600099FEB442F8D1284670BD00BF788F000889
:1048700010B50446FFF7E8FF2046FDF78BFE204603
:1048800010BD00002DE9F0410546002488B0ADF8C8
:104890000430BDF938302F48ADF80630BDF93C3052
:1048A0002860ADF80830BDF94030ADF80010ADF823
:1048B0000A30BDF94430ADF80220ADF80C30BDF936
:1048C00048306C64ADF80E30BDF94C302F1DADF89A
:1048D0001030BDF95030ADF81230BDF95430ADF89C
:1048E0001430BDF95830ADF81630BDF95C30ADF874
:1048F0001830BDF96030ADF81A30BDF96430ADF84C
:104900001C30BDF96830ADF81E303DF91480B8F1A7
:10491000FF3F1DD01C20FDF72BFE064600211C2268
:1049200001F06AFE4146304600F0E2FBB8F1FF3F7D
:1049300047F8046B05D0012303FA04F26B6C1343B0
:104940006B640134102CE0D1284608B0BDE8F0813A
:104950000026EBE7788F000870B5044654F8043B56
:1049600006469B68984700231D4654F8042B42B125
:10497000516812680968114214BF012200229A404E
:1049800015430133102BF0D133683046DB6898476C
:10499000284670BD0346024A2030FDF74BB900BFE0
:1049A000194B0008F8B50546044610260F46124B71
:1049B0001C2245F8043B0021284601F01DFE32462A
:1049C000002104F1200001F017FE3246002104F11D
:1049D000300001F011FE3246002104F1400001F0E8
:1049E0000BFE39462046FFF7D5FF2846394600F032
:1049F0007FFB2046F8BD00BFE88F000810B50446D5
:104A0000074B40F8203BFDF7E3F904F14000FCF7C9
:104A1000DDFA04F13000FCF7D9FA204610BD00BFE2
:104A2000E88F000810B50446FFF7E8FF2046FDF7C1
:104A3000B1FD204610BD884238B504460D460AD067
:104A4000FCF7C4FA3CB1EB681BB15B682946204611
:104A50009847EB68E360204638BDF0B50F46044642
:104A600085B000F045FFFD6804F13006203465B1E3
:104A700039463046FFF7DFFF012201212046FDF7CE
:104A800061F800F04BFF05B0F0BD102229466846E2
:104A900001F0B2FD69463046FFF7CDFF6846FCF7EE
:104AA00095FA2A46E9E7F0B50F46044685B000F0CE
:104AB0001FFFFD6804F14006203465B139463046D9
:104AC000FFF7B9FF012202212046FDF73BF800F075
:104AD00025FF05B0F0BD10222946684601F08CFD87
:104AE00069463046FFF7A7FF6846FCF76FFA2A468B
:104AF000E9E70000C36810B52BB940F23A22044937
:104B0000044800F0D9FE1B68BDE81040184700BFFC
:104B1000888F0008DB8F0008012908B502D0022920
:104B200006D008BDC36B13B13030FFF7E3FF08BDFB
:104B3000C36C002BFBD04030F7E77047A0F1B0000A
:104B4000FFF7FBBFA0F1B000FFF7F7BF00F076B8AA
:104B5000A0F1B000FFF7FABF00F073B8A0F1B00009
:104B6000FFF7FABF10B5044600F07AF8002104F10F
:104B7000B00000F03DFE064B204603F10802226023
:104B800003F128028833C4F8B020C4F8B43010BD53
:104B9000F08F00087047704710B4446800F10801B6
:104BA0000EC954B103F0010002B930B15B1008B175
:104BB000E0588258E01810BC104710BC7047000045
:104BC00000EB01138C33DA6810B57AB100EB0110F9
:104BD000D0F898202AB940F23A220549054800F059
:104BE0006BFE12681846BDE81040104710BD00BFAC
:104BF000888F0008DB8F000838B5054655F8403B24
:104C000004461B6898472846FEF74CF9054623687A
:104C100020465B689847284638BD38B5054655F8A4
:104C2000403B04461B6898472846FEF751F9054665
:104C3000236820465B689847284638BD4030FEF719
:104C400007BB10B50C464030FEF718FB204610BDE0
:104C5000C36810B504460BB19B689847204610BD49
:104C60002DE9F04F002504469B46894692462C4B81
:104C700085B003602B4BA06029464360C560056189
:104C800045618561057745771022203001F0B4FC3D
:104C900004F140062946102204F1300001F0ACFC7A
:104CA00004F18C0829464C22304601F0A5FC04F1A1
:104CB0009C0729461022404601F09EFC29461022FE
:104CC000384601F099FC10222946C4F8ACB0684679
:104CD00001F092FC69464046FFF7ADFE6846FCF7DE
:104CE00075F910222946684601F086FC6946384667
:104CF000FFF7A1FE6846FCF769F95246494630467F
:104D0000FEF740F9D4F8AC103046FEF715F93046FE
:104D100022460549FEF740FA204605B0BDE8F08F6F
:104D200088900008994B0008C14B00082DE9FF410D
:104D3000064688461746054656F8403B3C011B6828
:104D4000984700F0D5FDD8F80C308C342C44ABB12A
:104D5000E3680BB900F01CFF41462046FFF76BFEED
:104D6000012239463046FEF723FA00F0D7FD2B68C2
:104D700028465B68984704B0BDE8F081E3680BB152
:104D800000F028FF10220021684601F035FC69463A
:104D90002046FFF750FE6846FCF718F90022E0E7CE
:104DA0007FB504461A4B102203600021684601F0CB
:104DB00023FC002269462046FFF7B8FF6846FCF74F
:104DC00005F910220021684601F016FC012269460F
:104DD0002046FFF7ABFF6846FCF7F8F814F18C06A5
:104DE00008D004F1AC05B54204D0103D2846FCF7CC
:104DF000EDF8F8E704F13000FFF72AFF04F1200096
:104E0000FFF726FFA06900F03BFC204604B070BD10
:104E10008890000810B50446FFF7C2FF2046FDF752
:104E2000B9FB204610BD70B5D0E90823D0E9024592
:104E3000064612196B4100F01BF9736B2BB106F19A
:104E400028001B68BDE87040184770BDD0B5044607
:104E500016461F4600F04CFD204600F013F9C4E949
:104E60000867A06900F0E9FB321847EB0103204610
:104E700000F0FEF8BDE8D04000F050BDF8B50446A3
:104E80001F460D46164600F033FD636B13B994F8C8
:104E900038306BB9294604F12800FFF7CCFD3246C3
:104EA0003B462046FFF7D2FFBDE8F84000F036BD94
:104EB00000F06EFEEEE71FB5044600F019FD204637
:104EC00000F0E0F8636B13B194F8383083B9102226
:104ED0000021684601F090FB694604F12800FFF7C5
:104EE000AAFD6846FCF772F800F018FD04B010BD8A
:104EF00000F070FEEBE700001FB5436B044600F1C5
:104F0000280113B15B6868469847636B204603939A
:104F1000FFF7D1FF039B2BB940F23A22054906481F
:104F200000F0CAFC1B68684698476846FCF74EF8D4
:104F300004B010BD888F0008DB8F000810B5044650
:104F400000F0D6FC23681BB1237F0BB100F042FEBA
:104F50000023236000F0E2FC204610BD10B504469B
:104F600000F0C6FC236853B9237F0BB100F010FE9C
:104F7000A06900F062FB0123C4E902012360BDE8DF
:104F8000104000F0CBBC38B5044600F0B1FC2368FB
:104F900073B1A06900F051FB04F10805D5E90045A3
:104FA000041B61EB050500F0B9FC2046294638BD1D
:104FB00000240025F7E770B5064600F099FCD6E915
:104FC00004453046FFF7DFFF24184D4100F0A6FCF2
:104FD0002046294670BD08B5FFF7EDFF08BD08B5AE
:104FE000FFF7E9FF4FF47A72002302F0DBFF08BD00
:104FF00010B5044600F07CFCA06900F01EFB002206
:105000000023C4E90201C4E90423BDE8104000F014
:1050100085BC002310B5002203600023C0E90223F1
:10502000C0E90423044600F01DFB0123A06123779F
:105030002046FFF7DDFF204610BD03689B68184738
:10504000094B10B5002203600023C0E902230023AE
:1050500003614361044600F005FB0449A06100F0D0
:1050600069FA204610BD00BFC89000083B500008F8
:1050700007B5009000F10801806900F09AFA03B0CA
:105080005DF804FB00F10801806900F0BBBA000084
:1050900010B50446024B0360FFF7F4FF204610BD35
:1050A000C890000870B50E4604461546FCF7B2FCE1
:1050B000013609D020460021FCF7D2FC29462046C3
:1050C000BDE87040FCF7C8BC70BD38B504460D465D
:1050D00003685AB18268204613600121FCF7C0FCC6
:1050E00029462046BDE83840FCF7B6BCC268F2E766
:1050F0000022FFF7D7BF70B50E4604461546FCF7F1
:1051000089FC013606D02A462046BDE870400021C1
:10511000FFF7DBBF70BD0022FFF7EDBF13B50446FC
:1051200001300FD102B010BD9C420AD120468968DF
:10513000FDF7BEFB0021204602B0BDE81040FDF7A0
:10514000B7BC0C31B1F900305A1CEDD10023224616
:1051500000930249024800F003FD00BF23910008BC
:1051600030010180884207B502460AD0431C08D0AE
:10517000013105D0002305490093054800F0F0FCFB
:105180000146084603B05DF804FB00BFF29000083A
:1051900030010180B1F900305A1C01D11846704726
:1051A000834201D1486870470C31F3E7431C07B5CF
:1051B0000AD0FFF7EFFF431C06D1002302460093FD
:1051C0000349044800F0CCFC03B05DF804FB00BFC9
:1051D0000391000830010180B1F900305A1C01D15F
:1051E00018467047834201D1886870470C31F3E755
:1051F000431C07B50AD0FFF7EFFF431C06D100237D
:10520000024600930349044800F0AAFC03B05DF88D
:1052100004FB00BFD4900008300101802DE9F74F56
:10522000D0F804A004469AF83A30002B46D103681F
:105230005B68984763681B6A98423FD0DAF8203071
:10524000DAF80840A0EB0308CAF82000DAF80C30BE
:10525000314808EA0308844246464FF0000727D049
:10526000DAE90A239AF83BB0A8FB0089CDE90023CC
:105270000025BBF1000F2BD05A464046494602F0AC
:10528000CDF9DDE9002312EB080243EB0903904658
:105290005A46994606460F4602F0CCF9B8EB000094
:1052A00069EB0101A94208BFA0420AD2CAE90A017A
:1052B000DAE90C23B6185F41CAE90C6703B0BDE810
:1052C000F08F013647F10007001B61EB0501EDE7A8
:1052D00022462B464046494602F064FE22460646D8
:1052E0000F46404649462B4602F05CFEDDE9008948
:1052F00018EB020849EB0309A94508BFA04502D2F3
:10530000CAE90A89D4E7013647F10007B8EB040877
:1053100069EB0509F4E700BF40420F00824206D95D
:105320008A420BD9884294BF0020012070478842EE
:1053300006D98A428CBF00200120704701207047A7
:10534000002070472DE9F14F4768064697F83A303C
:10535000002B60D197F83930002B5CD1FFF75EFF4E
:1053600075686B68002B59D0D5E90C89D3E9000129
:10537000894508BF804505D333685B6901B0BDE846
:10538000F04F1847B0EB080861EB0909D5E906238F
:105390004B4508BF42452C6906D3AB68254A93426A
:1053A0000FD1444528BF44462A6A3B6A1444EA6840
:1053B0001440A34221D14FF484721F491F4800F0CA
:1053C0007BFA95F83B20DFF878A04FF0000B7AB11C
:1053D0004046494602F02EF910EB0A0041EB0B0162
:1053E000144A002302F0DEFD844228BF0446DBE7B6
:1053F000A3FB080103FB0911EEE7336820461B6994
:10540000984733685B68984722460146386AFFF739
:1054100085FF0028B0D101B0BDE8F08F3B69386A44
:10542000FA681844336810401B6901B0BDE8F04FBA
:10543000184700BF40420F00349100087E910008D9
:105440003F420F002DE9F04F436885B093F83820B4
:105450000546002A64D193F83A30002B60D10368E6
:105460001B6898472B68DB699847076827B92D2286
:105470002D492E4800F020FA1F23012202FA03F1E1
:105480008F425FFA83FB02D0013BF7D19B46D0F8F5
:1054900004A0AAF104031C2B01D93B22E8E707264C
:1054A0009E40002317F1FF30214C43F1FF313A4673
:1054B000C4FB060102F076FD00236C682A682360B5
:1054C000636052680393CDE9000190474FF00008F4
:1054D0004FF0000920626C685246C4E90A89A7604F
:1054E00084F83BB00120002102F0A4F8DDE900239C
:1054F000C4E90623039B013884F8393084F83A3034
:105500000123E06026612846C4E90C8984F838301C
:10551000FFF784FE284605B0BDE8F04FFFF712BF45
:1055200005B0BDE8F08F00BF349100081F9200085D
:1055300040420F0038B505460C46FFF783FF00F0E8
:10554000D7F96B681C60BDE8384000F0E7B970B56A
:10555000044600F0CDF92368DB689847636893F848
:105560003A201AB1BDE8704000F0D8B9012283F8A2
:10557000392063685B68A3B12046FFF74FFE65687A
:105580006E68D5E90C01D6E90023994208BF904224
:1055900007D3F3686B602B68002BEAD0B06898479C
:1055A000E7E700226368204683F83920FFF7CAFE48
:1055B000D8E72DE9F04180460C4616461F46069D69
:1055C00000F096F94046FFF729FEA5600025D8F8BF
:1055D0000420C4E9006753684BB9E36085B954609F
:1055E0004046FFF7AFFEBDE8F04100F097B9D3E9C0
:1055F00000018F4208BF8642EFD31D46DB68EBE710
:10560000EC60F0E738B505460C4600F071F96A68C1
:105610005368A34209D1DB6828465360FFF792FE26
:10562000BDE8384000F07AB91346002BF8D0DA68AC
:105630009442F9D1E268DA60F2E738B50446FFF740
:1056400001FF00F055F92046FFF7E8FD6368D3E954
:105650000C4500F063F92046294638BD08B5FFF730
:10566000ECFF08BD00487047A4910008024B1B687E
:105670000BB1024818477047FC010020A4910008B4
:10568000024B1B6803B11847704700BF600C002035
:1056900070B50E4600250446056045600E4930464B
:1056A00001F0A7FC29463044206023681A782F2A8D
:1056B00007D10133236051B92A220849084800F074
:1056C000FBF8002AF7D0013301312360EDE700F049
:1056D00033FB6060204670BDCC910008CE9100087D
:1056E0001892000800687047406808B520B100F0C3
:1056F000CBFA431E5842584108BD10B50446FFF787
:10570000F3FF10B1606800B1043810BD406808B5FF
:1057100020B100F0B9FAB0FA80F0400908BD10B528
:105720000446FFF7F3FF10B1606800B1043810BD04
:105730004068003018BF0120704700207047704754
:105740007047F8B50E46036804461B6D8F18354642
:105750009847BD4207D0236815F8011B9B6C204673
:1057600098470130F5D1236820465B6D9847A81B08
:10577000F8BDF8B50E46036804461B6D8F18354614
:105780009847BD4208D023682046DB6C9847431CED
:1057900002D005F8010BF4E7236820465B6D9847BB
:1057A000A81BF8BD002070477047002070470020FC
:1057B0007047000010B50446044B0360503340F8B6
:1057C000043F00F081FA204610BD00BF2C92000873
:1057D000A0F10400EEE700BF10B50446FFF7EAFFB2
:1057E0002046FCF7D7FE204610BDA0F10400F3E7E9
:1057F00013B504460E4B002240F8043B00F046FA75
:105800000C4B0D49236060336360002320466361C5
:10581000FCF70CFF0346606128B900900246074977
:10582000074800F09DF9FCF70FFD204602B010BDBF
:1058300000960008A492000884920008879200084D
:105840001901018010B50446064B03F108026833C4
:1058500002604360406900F017FB2046FFF7AAFF93
:10586000204610BD9C92000838B504460D460368DA
:105870001B6D984701220021606900F029FD6169D4
:10588000284600F01BFD0546236820465B6D9847BF
:10589000284638BD38B5044603681B6D98476069D3
:1058A00000F0ACFB606900F0E7FB0546236820468A
:1058B0005B6D9847284638BD04460D46164607B529
:1058C00000F016F800962B4600222146014800F011
:1058D00047F900BF4401FF80EFF31080C04300F0A0
:1058E00001007047EFF30580003018BF01207047BA
:1058F00010B5074C2368013304D1512205490648ED
:10590000FFF7DAFF00F094F923680133236010BD3C
:10591000640C00200C93000859930008054B1A688A
:1059200032B11A68013A1A601B680BB900F092B9DB
:10593000704700BF640C00200122D0E84F3FC0E850
:10594000412F0029F9D1D8B2003018BF012070478B
:10595000D0E85F3F0B449BB2C0E8523F002AF7D12A
:1059600018467047D0E85F3F5B1A9BB2C0E8523FD1
:10597000002AF7D11846704708B50B48FFF7DCFF3F
:1059800028B1FFF7B5FFBFF34F8F20BFFDE7FFF74B
:10599000A9FF08B1FCF774FAFFF79EFF0028F9D0C1
:1059A0000120FCF7C1FD00BFA80C002070B5164C0B
:1059B0000D4634EA200428BF044616468EB0342231
:1059C000002101A800F018FE019402960395FFF74C
:1059D0008FFF0E4A13680133012B136004D1342268
:1059E00001A90B4800F0FDFD342201A9094800F08F
:1059F000F8FD094B1B680BB106489847FFF78EFF6F
:105A000000200EB070BD00BF0101FF80680C0020B7
:105A1000740C0020AC0C00206C0C00202DE9F0412F
:105A20002E4C0E4621688046C1F34173032B0CBFF8
:105A30004D428DB2C1F30743174629482A46FCF769
:105A400077FA6FF498731D44132D0FD8DFE805F033
:105A50000A2D3033363C393F0E0E0E0E0E0E0E0E52
:105A60000E0E0E42A1681F48FCF762FA4046FCF792
:105A700035FA61681C48FCF75BFA4EB11B48FCF72D
:105A80002DFA3046FCF72AFA39461948FCF750FA45
:105A9000A1681848FCF74CFA21681748FCF748FA47
:105AA000BDE8F0411548FCF743BAA1681448DBE7AC
:105AB000A1681448D8E7A1681348D5E7A16813483E
:105AC000D2E7A1681248CFE7A1681248CCE7A168E5
:105AD0001148C9E71148FCF72BFAC7E7AC0C0020C6
